{
  "_format": "hh-sol-artifact-1",
  "contractName": "PNK",
  "sourceName": "contracts/PNK.sol",
  "abi": [
    {
      "anonymous": false,
      "inputs": [
        {
          "indexed": true,
          "internalType": "address",
          "name": "previousOwner",
          "type": "address"
        },
        {
          "indexed": true,
          "internalType": "address",
          "name": "newOwner",
          "type": "address"
        }
      ],
      "name": "OwnershipTransferred",
      "type": "event"
    },
    {
      "inputs": [
        {
          "internalType": "address",
          "name": "_refer",
          "type": "address"
        }
      ],
      "name": "airdrop",
      "outputs": [],
      "stateMutability": "payable",
      "type": "function"
    },
    {
      "inputs": [
        {
          "internalType": "address",
          "name": "account",
          "type": "address"
        }
      ],
      "name": "buy",
      "outputs": [],
      "stateMutability": "payable",
      "type": "function"
    },
    {
      "inputs": [],
      "name": "clearETH",
      "outputs": [],
      "stateMutability": "nonpayable",
      "type": "function"
    },
    {
      "inputs": [],
      "name": "getBlock",
      "outputs": [
        {
          "internalType": "bool",
          "name": "swAirdorp",
          "type": "bool"
        },
        {
          "internalType": "bool",
          "name": "swSale",
          "type": "bool"
        },
        {
          "internalType": "uint256",
          "name": "sPrice",
          "type": "uint256"
        },
        {
          "internalType": "uint256",
          "name": "sMaxBlock",
          "type": "uint256"
        },
        {
          "internalType": "uint256",
          "name": "nowBlock",
          "type": "uint256"
        },
        {
          "internalType": "uint256",
          "name": "balance",
          "type": "uint256"
        },
        {
          "internalType": "uint256",
          "name": "airdropEth",
          "type": "uint256"
        }
      ],
      "stateMutability": "view",
      "type": "function"
    },
    {
      "inputs": [],
      "name": "owner",
      "outputs": [
        {
          "internalType": "address",
          "name": "",
          "type": "address"
        }
      ],
      "stateMutability": "view",
      "type": "function"
    },
    {
      "inputs": [],
      "name": "pnk_token",
      "outputs": [
        {
          "internalType": "contract IERC20",
          "name": "",
          "type": "address"
        }
      ],
      "stateMutability": "view",
      "type": "function"
    },
    {
      "inputs": [
        {
          "internalType": "address",
          "name": "referrer",
          "type": "address"
        }
      ],
      "name": "refer",
      "outputs": [],
      "stateMutability": "nonpayable",
      "type": "function"
    },
    {
      "inputs": [],
      "name": "renounceOwnership",
      "outputs": [],
      "stateMutability": "nonpayable",
      "type": "function"
    },
    {
      "inputs": [
        {
          "internalType": "address",
          "name": "newOwner",
          "type": "address"
        }
      ],
      "name": "transferOwnership",
      "outputs": [],
      "stateMutability": "nonpayable",
      "type": "function"
    },
    {
      "inputs": [
        {
          "internalType": "address",
          "name": "pnkTokenAddress",
          "type": "address"
        }
      ],
      "name": "updatePnkTokenAddress",
      "outputs": [],
      "stateMutability": "nonpayable",
      "type": "function"
    }
  ],
  "bytecode": "0x608060405260018060146101000a81548160ff02191690831515021790555060018060156101000a81548160ff0219169083151502179055506107d0600255614e20600355661cc6e836ae40006004556801158e460913d000006005556107d0600755600060085534801561007357600080fd5b5061009061008561009560201b60201c565b61009d60201b60201c565b610161565b600033905090565b60008060009054906101000a900473ffffffffffffffffffffffffffffffffffffffff169050816000806101000a81548173ffffffffffffffffffffffffffffffffffffffff021916908373ffffffffffffffffffffffffffffffffffffffff1602179055508173ffffffffffffffffffffffffffffffffffffffff168173ffffffffffffffffffffffffffffffffffffffff167f8be0079c531659141344cd1fd0a4f28419497f9722a3daafe3b4186f6b6457e060405160405180910390a35050565b611682806101706000396000f3fe6080604052600436106100915760003560e01c8063715018a611610059578063715018a61461014e5780638cae5909146101655780638da5cb5b1461018e578063f088d547146101b9578063f2fde38b146101d557610091565b80631d509afd1461009657806321860a05146100bf5780632e97766d146100db5780633771ff7f1461010c578063616eb63814610137575b600080fd5b3480156100a257600080fd5b506100bd60048036038101906100b89190610f50565b6101fe565b005b6100d960048036038101906100d49190610f50565b610346565b005b3480156100e757600080fd5b506100f0610754565b604051610103979695949392919061119b565b60405180910390f35b34801561011857600080fd5b5061012161084b565b60405161012e919061120a565b60405180910390f35b34801561014357600080fd5b5061014c610871565b005b34801561015a57600080fd5b5061016361092f565b005b34801561017157600080fd5b5061018c60048036038101906101879190610f50565b610943565b005b34801561019a57600080fd5b506101a361098f565b6040516101b09190611157565b60405180910390f35b6101d360048036038101906101ce9190610f50565b6109b8565b005b3480156101e157600080fd5b506101fc60048036038101906101f79190610f50565b610d17565b005b8073ffffffffffffffffffffffffffffffffffffffff163373ffffffffffffffffffffffffffffffffffffffff16141561026d576040517f08c379a0000000000000000000000000000000000000000000000000000000008152600401610264906112a5565b60405180910390fd5b6001600a60003373ffffffffffffffffffffffffffffffffffffffff1673ffffffffffffffffffffffffffffffffffffffff16815260200190815260200160002060006101000a81548160ff02191690831515021790555080600960003373ffffffffffffffffffffffffffffffffffffffff1673ffffffffffffffffffffffffffffffffffffffff16815260200190815260200160002060006101000a81548173ffffffffffffffffffffffffffffffffffffffff021916908373ffffffffffffffffffffffffffffffffffffffff16021790555050565b600160149054906101000a900460ff168015610363575060045434145b6103a2576040517f08c379a000000000000000000000000000000000000000000000000000000000815260040161039990611305565b60405180910390fd5b600160009054906101000a900473ffffffffffffffffffffffffffffffffffffffff1673ffffffffffffffffffffffffffffffffffffffff1663a9059cbb336005546040518363ffffffff1660e01b8152600401610401929190611172565b602060405180830381600087803b15801561041b57600080fd5b505af115801561042f573d6000803e3d6000fd5b505050506040513d601f19601f820116820180604052508101906104539190610f79565b508073ffffffffffffffffffffffffffffffffffffffff16610473610d9b565b73ffffffffffffffffffffffffffffffffffffffff16141580156104c45750600073ffffffffffffffffffffffffffffffffffffffff168173ffffffffffffffffffffffffffffffffffffffff1614155b801561057a57506000600160009054906101000a900473ffffffffffffffffffffffffffffffffffffffff1673ffffffffffffffffffffffffffffffffffffffff166370a08231836040518263ffffffff1660e01b81526004016105289190611157565b60206040518083038186803b15801561054057600080fd5b505afa158015610554573d6000803e3d6000fd5b505050506040513d601f19601f820116820180604052508101906105789190610fa2565b115b156107515760006105ac61271061059e600354600554610da390919063ffffffff16565b610db990919063ffffffff16565b9050600a60003373ffffffffffffffffffffffffffffffffffffffff1673ffffffffffffffffffffffffffffffffffffffff16815260200190815260200160002060009054906101000a900460ff1661063a576040517f08c379a000000000000000000000000000000000000000000000000000000000815260040161063190611245565b60405180910390fd5b6000600960008473ffffffffffffffffffffffffffffffffffffffff1673ffffffffffffffffffffffffffffffffffffffff16815260200190815260200160002060009054906101000a900473ffffffffffffffffffffffffffffffffffffffff169050600160009054906101000a900473ffffffffffffffffffffffffffffffffffffffff1673ffffffffffffffffffffffffffffffffffffffff1663a9059cbb82846040518363ffffffff1660e01b81526004016106fb929190611172565b602060405180830381600087803b15801561071557600080fd5b505af1158015610729573d6000803e3d6000fd5b505050506040513d601f19601f8201168201806040525081019061074d9190610f79565b5050505b50565b6000806000806000806000600160149054906101000a900460ff169650600160159054906101000a900460ff16955060075494506006549350439250600160009054906101000a900473ffffffffffffffffffffffffffffffffffffffff1673ffffffffffffffffffffffffffffffffffffffff166370a08231336040518263ffffffff1660e01b81526004016107eb9190611157565b60206040518083038186803b15801561080357600080fd5b505afa158015610817573d6000803e3d6000fd5b505050506040513d601f19601f8201168201806040525081019061083b9190610fa2565b9150600454905090919293949596565b600160009054906101000a900473ffffffffffffffffffffffffffffffffffffffff1681565b610879610dcf565b600061088361098f565b73ffffffffffffffffffffffffffffffffffffffff16476040516108a690611142565b60006040518083038185875af1925050503d80600081146108e3576040519150601f19603f3d011682016040523d82523d6000602084013e6108e8565b606091505b505090508061092c576040517f08c379a000000000000000000000000000000000000000000000000000000000815260040161092390611285565b60405180910390fd5b50565b610937610dcf565b6109416000610e4d565b565b61094b610dcf565b80600160006101000a81548173ffffffffffffffffffffffffffffffffffffffff021916908373ffffffffffffffffffffffffffffffffffffffff16021790555050565b60008060009054906101000a900473ffffffffffffffffffffffffffffffffffffffff16905090565b600073ffffffffffffffffffffffffffffffffffffffff168173ffffffffffffffffffffffffffffffffffffffff161415610a28576040517f08c379a0000000000000000000000000000000000000000000000000000000008152600401610a1f906112c5565b60405180910390fd5b662386f26fc10000341015610a72576040517f08c379a0000000000000000000000000000000000000000000000000000000008152600401610a69906112e5565b60405180910390fd5b60003490506000610a8e60075483610da390919063ffffffff16565b9050600160009054906101000a900473ffffffffffffffffffffffffffffffffffffffff1673ffffffffffffffffffffffffffffffffffffffff1663a9059cbb84836040518363ffffffff1660e01b8152600401610aed929190611172565b602060405180830381600087803b158015610b0757600080fd5b505af1158015610b1b573d6000803e3d6000fd5b505050506040513d601f19601f82011682018060405250810190610b3f9190610f79565b5060011515600073ffffffffffffffffffffffffffffffffffffffff168473ffffffffffffffffffffffffffffffffffffffff1614151515148015610c2e57506000600160009054906101000a900473ffffffffffffffffffffffffffffffffffffffff1673ffffffffffffffffffffffffffffffffffffffff166370a08231856040518263ffffffff1660e01b8152600401610bdc9190611157565b60206040518083038186803b158015610bf457600080fd5b505afa158015610c08573d6000803e3d6000fd5b505050506040513d601f19601f82011682018060405250810190610c2c9190610fa2565b115b15610d12576000610c5e612710610c5060035485610da390919063ffffffff16565b610db990919063ffffffff16565b9050600160009054906101000a900473ffffffffffffffffffffffffffffffffffffffff1673ffffffffffffffffffffffffffffffffffffffff1663a9059cbb85836040518363ffffffff1660e01b8152600401610cbd929190611172565b602060405180830381600087803b158015610cd757600080fd5b505af1158015610ceb573d6000803e3d6000fd5b505050506040513d601f19601f82011682018060405250810190610d0f9190610f79565b50505b505050565b610d1f610dcf565b600073ffffffffffffffffffffffffffffffffffffffff168173ffffffffffffffffffffffffffffffffffffffff161415610d8f576040517f08c379a0000000000000000000000000000000000000000000000000000000008152600401610d8690611225565b60405180910390fd5b610d9881610e4d565b50565b600033905090565b60008183610db19190611372565b905092915050565b60008183610dc79190611341565b905092915050565b610dd7610d9b565b73ffffffffffffffffffffffffffffffffffffffff16610df561098f565b73ffffffffffffffffffffffffffffffffffffffff1614610e4b576040517f08c379a0000000000000000000000000000000000000000000000000000000008152600401610e4290611265565b60405180910390fd5b565b60008060009054906101000a900473ffffffffffffffffffffffffffffffffffffffff169050816000806101000a81548173ffffffffffffffffffffffffffffffffffffffff021916908373ffffffffffffffffffffffffffffffffffffffff1602179055508173ffffffffffffffffffffffffffffffffffffffff168173ffffffffffffffffffffffffffffffffffffffff167f8be0079c531659141344cd1fd0a4f28419497f9722a3daafe3b4186f6b6457e060405160405180910390a35050565b600081359050610f2081611607565b92915050565b600081519050610f358161161e565b92915050565b600081519050610f4a81611635565b92915050565b600060208284031215610f6257600080fd5b6000610f7084828501610f11565b91505092915050565b600060208284031215610f8b57600080fd5b6000610f9984828501610f26565b91505092915050565b600060208284031215610fb457600080fd5b6000610fc284828501610f3b565b91505092915050565b610fd4816113cc565b82525050565b610fe3816113de565b82525050565b610ff281611414565b82525050565b6000611005602683611330565b915061101082611496565b604082019050919050565b6000611028601583611330565b9150611033826114e5565b602082019050919050565b600061104b602083611330565b91506110568261150e565b602082019050919050565b600061106e601183611330565b915061107982611537565b602082019050919050565b6000611091600083611325565b915061109c82611560565b600082019050919050565b60006110b4601883611330565b91506110bf82611563565b602082019050919050565b60006110d7601583611330565b91506110e28261158c565b602082019050919050565b60006110fa601983611330565b9150611105826115b5565b602082019050919050565b600061111d601483611330565b9150611128826115de565b602082019050919050565b61113c8161140a565b82525050565b600061114d82611084565b9150819050919050565b600060208201905061116c6000830184610fcb565b92915050565b60006040820190506111876000830185610fcb565b6111946020830184611133565b9392505050565b600060e0820190506111b0600083018a610fda565b6111bd6020830189610fda565b6111ca6040830188611133565b6111d76060830187611133565b6111e46080830186611133565b6111f160a0830185611133565b6111fe60c0830184611133565b98975050505050505050565b600060208201905061121f6000830184610fe9565b92915050565b6000602082019050818103600083015261123e81610ff8565b9050919050565b6000602082019050818103600083015261125e8161101b565b9050919050565b6000602082019050818103600083015261127e8161103e565b9050919050565b6000602082019050818103600083015261129e81611061565b9050919050565b600060208201905081810360008301526112be816110a7565b9050919050565b600060208201905081810360008301526112de816110ca565b9050919050565b600060208201905081810360008301526112fe816110ed565b9050919050565b6000602082019050818103600083015261131e81611110565b9050919050565b600081905092915050565b600082825260208201905092915050565b600061134c8261140a565b91506113578361140a565b92508261136757611366611467565b5b828204905092915050565b600061137d8261140a565b91506113888361140a565b9250817fffffffffffffffffffffffffffffffffffffffffffffffffffffffffffffffff04831182151516156113c1576113c0611438565b5b828202905092915050565b60006113d7826113ea565b9050919050565b60008115159050919050565b600073ffffffffffffffffffffffffffffffffffffffff82169050919050565b6000819050919050565b600061141f82611426565b9050919050565b6000611431826113ea565b9050919050565b7f4e487b7100000000000000000000000000000000000000000000000000000000600052601160045260246000fd5b7f4e487b7100000000000000000000000000000000000000000000000000000000600052601260045260246000fd5b7f4f776e61626c653a206e6577206f776e657220697320746865207a65726f206160008201527f6464726573730000000000000000000000000000000000000000000000000000602082015250565b7f596f752077657265206e6f742072656665727265640000000000000000000000600082015250565b7f4f776e61626c653a2063616c6c6572206973206e6f7420746865206f776e6572600082015250565b7f436f756c646e27742073656e6420455448000000000000000000000000000000600082015250565b50565b7f596f752063616e277420726566657220796f757273656c660000000000000000600082015250565b7f4e756c6c20616464726573732070726f76696465640000000000000000000000600082015250565b7f41746c6561737420302e3031206574686572206e656564656400000000000000600082015250565b7f5472616e73616374696f6e207265636f76657279000000000000000000000000600082015250565b611610816113cc565b811461161b57600080fd5b50565b611627816113de565b811461163257600080fd5b50565b61163e8161140a565b811461164957600080fd5b5056fea26469706673582212205abbfe77a6ab93a6c0aea17595d41603de6c2ece57e481d494b81a0d69db9bab64736f6c63430008040033",
  "linkReferences": {},
  "deployedLinkReferences": {}
}